:020000040800F2
:10000000000001208D23000841210008492100083B
:10001000512100085921000861210008000000005A
:10002000000000000000000000000000692100083E
:1000300077210008000000008521000893210008B6
:10004000DD230008DD230008DD230008DD23000890
:10005000DD230008DD230008DD230008DD23000880
:10006000DD230008DD230008DD230008DD23000870
:10007000DD230008DD230008DD230008DD23000860
:10008000DD230008DD230008DD2300080000000058
:10009000000000000000000000000000DD23000858
:1000A000DD230008A1210008DD230008DD2300086E
:1000B000DD230008DD230008DD230008DD23000820
:1000C000DD230008DD230008DD230008DD23000810
:1000D000DD230008B5210008DD2300080000000032
:1000E000DD230008DD230008DD23000800000000F8
:1000F000000000000000000000000000DD230008F8
:1001000000000000DD230008DD230008DD230008D7
:1001100000000000000000000000000000000000DF
:10012000DD230008DD230008C9210008DD230008C5
:10013000DD230008000000000000000000000000B7
:10014000000000000000000000000000DD230008A7
:10015000DD230008DD230008DD230008DD2300087F
:10016000DD230008DD23000800000000000000007F
:10017000000000000000000000000000000000007F
:1001800000000000DD230008000000000000000067
:04019000DD23000863
:1001A00010B5054C237833B9044B13B10448AFF3B1
:1001B00000800123237010BDE80100200000000032
:1001C00054AA000808B5034B1BB103490348AFF319
:1001D000008008BD00000000EC01002054AA0008C7
:1001E00010F8012B11F8013B012A28BF9A42F7D0E1
:1001F000D01A70470000000000000000000000005E
:1002000001F0FF01102A2BDB10F0070F08D010F8C7
:10021000013B013A8B422DD010F0070F42B3F6D1CB
:10022000F0B441EA012141EA014122F007047FF0E4
:1002300000070023F0E80256083C85EA010586EA3B
:10024000010685FA47F5A3FA87F586FA47F6A5FA77
:1002500087F68EB9EED1F0BC01F0FF0102F0070283
:1002600032B110F8013B013A83EA010313B1F8D12E
:100270000020704701387047002D06BF354603380F
:10028000073815F0010F07D1013015F4807F02BF48
:10029000013015F4C03F0130F0BC0138704700BF99
:1002A000034613F8012B002AFBD1181A01387047B6
:1002B00081F0004102E000BF83F0004330B54FEA17
:1002C00041044FEA430594EA050F08BF90EA020F84
:1002D0001FBF54EA000C55EA020C7FEA645C7FEA17
:1002E000655C00F0E2804FEA5454D4EB5555B8BF3A
:1002F0006D420CDD2C4480EA020281EA030382EAAB
:10030000000083EA010180EA020281EA0303362D3C
:1003100088BF30BD11F0004F4FEA01314FF4801C0F
:100320004CEA113102D0404261EB410113F0004F21
:100330004FEA03334CEA133302D0524263EB4303D8
:1003400094EA050F00F0A780A4F10104D5F1200E76
:100350000DDB02FA0EFC22FA05F2801841F10001D1
:1003600003FA0EF2801843FA05F359410EE0A5F1A5
:1003700020050EF1200E012A03FA0EFC28BF4CF0D6
:10038000020C43FA05F3C01851EBE37101F000458C
:1003900007D54FF0000EDCF1000C7EEB00006EEB99
:1003A0000101B1F5801F1BD3B1F5001F0CD3490823
:1003B0005FEA30004FEA3C0C04F101044FEA44527A
:1003C00012F5800F80F09A80BCF1004F08BF5FEA01
:1003D000500C50F1000041EB045141EA050130BDE1
:1003E0005FEA4C0C404141EB0101013C28BFB1F5F3
:1003F000801FE9D291F0000F04BF01460020B1FA3E
:1004000081F308BF2033A3F10B03B3F120020CDA10
:100410000C3208DD02F1140CC2F10C0201FA0CF0EE
:1004200021FA02F10CE002F11402D8BFC2F1200C53
:1004300001FA02F120FA0CFCDCBF41EA0C01904009
:10044000E41AA2BF01EB0451294330BD6FEA040452
:100450001F3C1CDA0C340EDC04F11404C4F120023D
:1004600020FA04F001FA02F340EA030021FA04F34F
:1004700045EA030130BDC4F10C04C4F1200220FAA6
:1004800002F001FA04F340EA0300294630BD21FAE4
:1004900004F0294630BD94F0000F83F4801306BFAA
:1004A00081F480110134013D4EE77FEA645C18BF9E
:1004B0007FEA655C29D094EA050F08BF90EA020F35
:1004C00005D054EA000C04BF1946104630BD91EA2D
:1004D000030F1EBF0021002030BD5FEA545C05D130
:1004E0004000494128BF41F0004130BD14F580046F
:1004F0003CBF01F5801130BD01F0004545F0FE41E3
:1005000041F470014FF0000030BD7FEA645C1ABF17
:10051000194610467FEA655C1CBF0B46024650EA4E
:10052000013406BF52EA033591EA030F41F400217A
:1005300030BD00BF90F0000F04BF0021704730B500
:100540004FF4806404F132044FF000054FF00001D5
:1005500050E700BF90F0000F04BF0021704730B596
:100560004FF4806404F1320410F0004548BF40426B
:100570004FF000013EE700BF42004FEAE2014FEAC0
:1005800031014FEA02701FBF12F07F4393F07F4F9B
:1005900081F06051704732F07F4208BF704793F09E
:1005A0007F4F04BF41F40021704730B54FF46074B1
:1005B00001F0004521F000411CE700BF50EA0102B4
:1005C00008BF704730B54FF000050AE050EA01025D
:1005D00008BF704730B511F0004502D5404261EBCD
:1005E00041014FF4806404F132045FEA915C3FF40E
:1005F000D8AE4FF003025FEADC0C18BF03325FEAAB
:10060000DC0C18BF033202EBDC02C2F1200300FA5B
:1006100003FC20FA02F001FA03FE40EA0E0021FA80
:1006200002F11444BDE600BF70B54FF0FF0C4CF46E
:10063000E06C1CEA11541DBF1CEA135594EA0C0F20
:1006400095EA0C0F00F0DEF82C4481EA030621EA5B
:100650004C5123EA4C5350EA013518BF52EA033596
:1006600041F4801143F4801338D0A0FB02CE4FF048
:100670000005E1FB02E506F00042E0FB03E54FF078
:100680000006E1FB03569CF0000F18BF4EF0010E70
:10069000A4F1FF04B6F5007F64F5407404D25FEA6C
:1006A0004E0E6D4146EB060642EAC62141EA55511F
:1006B0004FEAC52040EA5E504FEACE2EB4F1FD0C61
:1006C00088BFBCF5E06F1ED8BEF1004F08BF5FEADF
:1006D000500E50F1000041EB045170BD06F0004691
:1006E00046EA010140EA020081EA0301B4EB5C043E
:1006F000C2BFD4EB0C0541EA045170BD41F4801136
:100700004FF0000E013C00F3AB8014F1360FDEBF5A
:10071000002001F0004170BDC4F10004203C35DA36
:100720000C341BDC04F11404C4F1200500FA05F3B9
:1007300020FA04F001FA05F240EA020001F000425A
:1007400021F0004110EBD37021FA04F642EB0601D0
:100750005EEA430E08BF20EAD37070BDC4F10C04FA
:10076000C4F1200500FA04F320FA05F001FA04F2BE
:1007700040EA020001F0004110EBD37041F10001AA
:100780005EEA430E08BF20EAD37070BDC4F12005B5
:1007900000FA05F24EEA020E20FA04F301FA05F21D
:1007A00043EA020321FA04F001F0004121FA04F2C5
:1007B00020EA020000EBD3705EEA430E08BF20EA95
:1007C000D37070BD94F0000F0FD101F000464000CF
:1007D00041EB010111F4801F08BF013CF7D041EA51
:1007E000060195F0000F18BF704703F00046520055
:1007F00043EB030313F4801F08BF013DF7D043EA26
:100800000603704794EA0C0F0CEA135518BF95EADB
:100810000C0F0CD050EA410618BF52EA4306D1D162
:1008200081EA030101F000414FF0000070BD50EA81
:10083000410606BF1046194652EA430619D094EA0B
:100840000C0F02D150EA013613D195EA0C0F05D1F5
:1008500052EA03361CBF104619460AD181EA030149
:1008600001F0004141F0FE4141F470014FF0000001
:1008700070BD41F0FE4141F4780170BD70B54FF09C
:10088000FF0C4CF4E06C1CEA11541DBF1CEA13551C
:1008900094EA0C0F95EA0C0F00F0A7F8A4EB0504FE
:1008A00081EA030E52EA03354FEA013100F08880F5
:1008B0004FEA03334FF0805545EA131343EA1263BE
:1008C0004FEA022245EA111545EA10654FEA002673
:1008D0000EF000419D4208BF964244F1FD0404F52C
:1008E000407402D25B084FEA3202B61A65EB030588
:1008F0005B084FEA32024FF480104FF4002CB6EB45
:10090000020E75EB030E22BFB61A754640EA0C00C4
:100910005B084FEA3202B6EB020E75EB030E22BF04
:10092000B61A754640EA5C005B084FEA3202B6EB45
:10093000020E75EB030E22BFB61A754640EA9C0004
:100940005B084FEA3202B6EB020E75EB030E22BFD4
:10095000B61A754640EADC0055EA060E18D04FEA92
:10096000051545EA16754FEA06164FEAC30343EA32
:1009700052734FEAC2025FEA1C1CC0D111F4801FFF
:100980000BD141EA00014FF000004FF0004CB6E7F8
:1009900011F4801F04BF01430020B4F1FD0C88BF97
:1009A000BCF5E06F3FF6AFAEB5EB030C04BFB6EBA2
:1009B000020C5FEA500C50F1000041EB045170BD95
:1009C0000EF0004E4EEA113114EB5C04C2BFD4EBC2
:1009D0000C0541EA045170BD41F480114FF0000E46
:1009E000013C90E645EA060E8DE60CEA135594EAC2
:1009F0000C0F08BF95EA0C0F3FF43BAF94EA0C0FC5
:100A00000AD150EA01347FF434AF95EA0C0F7FF439
:100A100025AF104619462CE795EA0C0F06D152EA8D
:100A200003353FF4FDAE1046194622E750EA410671
:100A300018BF52EA43067FF4C5AE50EA41047FF482
:100A40000DAF52EA43057FF4EBAE12E74FF0FF3CE7
:100A500006E000BF4FF0010C02E000BF4FF0010CB8
:100A60004DF804CD4FEA410C7FEA6C5C4FEA430C31
:100A700018BF7FEA6C5C1BD001B050EA410C0CBF80
:100A800052EA430C91EA030F02BF90EA020F0020E2
:100A9000704710F1000F91EA030F58BF994208BF49
:100AA00090422CBFD8176FEAE37040F00100704706
:100AB0004FEA410C7FEA6C5C02D150EA013C07D15D
:100AC0004FEA430C7FEA6C5CD6D152EA033CD3D0A8
:100AD0005DF8040B704700BF8446104662468C46A2
:100AE0001946634600E000BF01B5FFF7B7FF0028D5
:100AF00048BF10F1000F01BD4DF808EDFFF7F4FFFE
:100B00000CBF012000205DF808FB00BF4DF808ED88
:100B1000FFF7EAFF34BF012000205DF808FB00BFAB
:100B20004DF808EDFFF7E0FF94BF012000205DF8CD
:100B300008FB00BF4DF808EDFFF7CEFF94BF012082
:100B400000205DF808FB00BF4DF808EDFFF7C4FF7B
:100B500034BF012000205DF808FB00BF4FEA410CC4
:100B60007FEA6C5C02D150EA013C0AD14FEA430CA7
:100B70007FEA6C5C02D152EA033C02D14FF00000E4
:100B800070474FF0010070474FEA410212F5001222
:100B900015D211D56FF47873B3EB625212D94FEAC4
:100BA000C12343F0004343EA505311F0004F23FAAE
:100BB00002F018BF404270474FF00000704750EA03
:100BC000013005D111F0004008BF6FF000407047C0
:100BD0004FF00000704700BF4A0011D212F500121A
:100BE00011D20DD56FF47873B3EB62520ED44FEA85
:100BF000C12343F0004343EA505323FA02F0704705
:100C00004FF00000704750EA013002D14FF0FF3042
:100C100070474FF0000070474FEA4102B2F1E043E5
:100C200024BFB3F5001CDCF1FE5C0DD901F0004CD3
:100C30004FEAC0024CEA5070B2F1004F40EB830023
:100C400008BF20F00100704711F0804F21D113F14F
:100C50003872BCBF01F00040704741F480114FEA88
:100C60005252C2F11802C2F1200C10FA0CF320FA11
:100C700002F018BF40F001004FEAC1234FEAD3232E
:100C800003FA0CFC40EA0C0023FA02F34FEA430398
:100C9000CCE77FEA625307D150EA01331EBF4FF021
:100CA000FE4040F44000704701F0004040F0FE403C
:100CB00040F40000704700BF80F0004002E000BF39
:100CC00081F0004142001FBF5FEA410392EA030F37
:100CD0007FEA226C7FEA236C6AD04FEA1262D2EB81
:100CE0001363C1BFD218414048404140B8BF5B4286
:100CF000192B88BF704710F0004F40F4000020F01F
:100D00007F4018BF404211F0004F41F4000121F034
:100D10007F4118BF494292EA030F3FD0A2F101027E
:100D200041FA03FC10EB0C00C3F1200301FA03F1BC
:100D300000F0004302D5494260EB4000B0F5000FDF
:100D400013D3B0F1807F06D340084FEA310102F19E
:100D50000102FE2A51D2B1F1004F40EBC25008BF50
:100D600020F0010040EA03007047490040EB00001A
:100D7000013A28BFB0F5000FEDD2B0FA80FCACF11B
:100D8000080CB2EB0C0200FA0CF0AABF00EBC25048
:100D900052421843BCBFD0401843704792F0000F36
:100DA00081F4000106BF80F400000132013BB5E789
:100DB0004FEA41037FEA226C18BF7FEA236C21D0FF
:100DC00092EA030F04D092F0000F08BF0846704764
:100DD00090EA010F1CBF0020704712F07F4F04D132
:100DE000400028BF40F00040704712F100723CBF45
:100DF00000F50000704700F0004343F0FE4040F46F
:100E0000000070477FEA226216BF08467FEA23632C
:100E10000146420206BF5FEA412390EA010F40F417
:100E2000800070474FF0000304E000BF10F0004363
:100E300048BF40425FEA000C08BF704743F096434A
:100E400001464FF000001CE050EA010208BF704765
:100E50004FF000030AE000BF50EA010208BF7047EC
:100E600011F0004302D5404261EB41015FEA010C01
:100E700002BF84460146002043F0B64308BFA3F1F9
:100E80008053A3F50003BCFA8CF2083AA3EBC253DB
:100E900010DB01FA02FC634400FA02FCC2F12002FA
:100EA000BCF1004F20FA02F243EB020008BF20F031
:100EB0000100704702F1200201FA02FCC2F1200297
:100EC00050EA4C0021FA02F243EB020008BF20EA8C
:100ED000DC70704753B94AB9002908BF00281CBF0D
:100EE0004FF0FF314FF0FF3000F0A0B9ADF1080C2A
:100EF0006DE904CE00F03CF8DDF804E0DDE9022302
:100F000004B0704738B50022002304460D46FFF7B1
:100F1000FDFD28B920462946BDE8384000F00AB852
:100F2000204605F1004100F005F8404261EB410127
:100F300038BD00BFD0B50C4B002206460F46FFF768
:100F400073FBFFF749FE0446FFF7F4FA074B002254
:100F5000FFF76AFB02460B4630463946FFF7ACF90D
:100F6000FFF73AFE2146D0BD0000F03D0000F04101
:100F70002DE9F047089D0C46002B4ED194468C4538
:100F80008646B2FA82F262D94AB1C2F12003914098
:100F900020FA03F30CFA02FC194300FA02FE4FEAAE
:100FA0001C471FFA8CF6B1FBF7F44FEA1E4307FB10
:100FB000141143EA014304FB06F199420AD91CEBE0
:100FC000030304F1FF3080F01281994240F20F8157
:100FD000023C6344591A1FFA8EF3B1FBF7F007FB8A
:100FE000101143EA014300FB06F69E420AD91CEBAE
:100FF000030300F1FF3180F0FC809E4240F2F98053
:10100000634402389B1B40EA044000211DB1D340D9
:101010000022C5E90032BDE8F0878B4205D90DB149
:10102000C5E9000100210846F5E7B3FA83F100297C
:1010300046D1A34202D39042C0F0F080861A64EBFE
:1010400003030120002DE6D0C5E90063E3E7002A91
:1010500040F09080A1EB0C044FEA1C481FFA8CF77B
:101060000121B4FBF8F64FEA1E4308FB164443EA9D
:10107000044307FB06F0984208D91CEB030306F172
:10108000FF3402D2984200F2CD8026461C1A1FFA85
:101090008EF3B4FBF8F008FB104443EA044300FB72
:1010A00007F79F4208D91CEB030300F1FF3402D27B
:1010B0009F4200F2B0802046DB1B40EA0640A5E7D5
:1010C000C1F120068B4022FA06F71F4320FA06FCE6
:1010D00004FA01F343EA0C03F44000FA01F8380C77
:1010E0004FEA1349B4FBF0FE1FFA87FC00FB1E44D5
:1010F00049EA04440EFB0CF9A14502FA01F20AD9AF
:101100003C190EF1FF3A80F08480A14540F28180C5
:10111000AEF1020E3C44A4EB09041FFA83F9B4FBC0
:10112000F0F300FB134449EA044403FB0CFCA44520
:1011300007D93C1903F1FF3067D2A44565D9023BBA
:101140003C4443EA0E40A0FB0293A4EB0C049C42F7
:10115000CE469C4651D34ED055B1B8EB0E0364EB4E
:101160000C0404FA06F6CB401E43CC40C5E90064EB
:10117000002150E7C2F1200320FA03F10CFA02FC2F
:1011800024FA03F394400C434FEA1C4800FA02FE91
:101190001FFA8CF7B3FBF8F008FB1031230C43EA7D
:1011A000014300FB07F1994208D91CEB030300F14E
:1011B000FF362CD299422AD9023863445B1AA4B272
:1011C000B3FBF8F108FB113344EA034401FB07F3D6
:1011D000A34208D91CEB040401F1FF3613D2A34249
:1011E00011D902396444E41A41EA004139E704465E
:1011F000F0E6084606E7C845AED2B9EB020E63EB4F
:10120000070C0138A8E73146EDE7034699E7304679
:10121000D4E7D6467FE7634402384DE706462346C7
:1012200008460FE7023E634430E700BF704700BF47
:1012300080B584B000AF3B4600221A605A609A60C5
:10124000DA6000233B6001237B600123BB603B46E7
:101250001946064801F01EFB0346002B01D000F0A2
:1012600053FE00BF1037BD4680BD00BF0402002002
:1012700080B584B000AF3B4600221A605A609A6085
:10128000DA6001233B6001237B600123BB603B46A6
:101290001946064801F0FEFA0346002B01D000F083
:1012A00033FE00BF1037BD4680BD00BF04020020E2
:1012B00080B584B000AF3B4600221A605A609A6045
:1012C000DA6002233B6001237B600123BB603B4665
:1012D0001946064801F0DEFA0346002B01D000F063
:1012E00013FE00BF1037BD4680BD00BF04020020C2
:1012F00080B584B000AF3B4600221A605A609A6005
:10130000DA6011233B6001237B600123BB603B4615
:101310001946064801F0BEFA0346002B01D000F042
:10132000F3FD00BF1037BD4680BD00BF04020020A2
:1013300080B582B000AF0023FB800B4801F02AF992
:101340000121094801F00DFA0346002B04D106489B
:1013500001F092FA0346FB80034801F0CFF9FB88C5
:1013600018460837BD4680BD040200202DE9B04371
:1013700086B000AF78604FF000024FF00003C7E97D
:1013800004230023FB7313E0FB7B5B007A681344A8
:101390001B889BB200221C461546D7E9042312EB9A
:1013A000040843EB0509C7E90489FB7B0133FB73A0
:1013B000FB7B632BE8D9D7E904014FF064024FF0BF
:1013C0000003FFF787FD02460B4610461946FFF75C
:1013D0003BFD034607EE903AB0EE670A1837BD466C
:1013E000BDE8B08300000000B0B582B000AF87ED6B
:1013F000010A7868FFF7C0F816A3D3E90023FFF7C6
:101400003DFA02460B4614461D46114B1B68184612
:10141000FFF7B2F802460B4620462946FFF704F9CB
:1014200002460B461046194602460B46FEF746FF9B
:1014300002460B4610461946FFF7EEFB034607EE41
:10144000903AB0EE670A0837BD46B0BDAFF30080F2
:10145000080000200000000000FEAF4080B483B010
:1014600000AF87ED010A0B4B1B8807EE903AF8EEB0
:10147000E77AD7ED016A86EEA77A074BD3ED007ABB
:1014800067EE277AB0EE670A0C37BD465DF8047B3D
:10149000704700BF2A7AFF1F0800002000000000EC
:1014A00080B582B000AF87ED010A134BD3ED007A0F
:1014B00097ED017A37EE677A104BD3ED007AC7EEDD
:1014C000276A16EE900AFFF757F809A3D3E900231D
:1014D000FFF7D4F902460B4610461946FFF79CFB6E
:1014E000034607EE903AB0EE670A0837BD4680BD66
:1014F0009A9999999999EF3F0C00002004000020D7
:1015000080B584B000AF0346FB80FB88364A92FB6F
:10151000F3F3A3F51C53103B1846FFF71BF80246E4
:101520000B4643EC102B09F09FF887ED020B26A326
:10153000D3E90023D7E90201FFF776F802460B460C
:1015400010461946D7E90223FFF76EF802460B460C
:10155000104619461EA3D3E90023FEF7AFFE02464C
:101560000B4610461946D7E90223FFF75DF80246FD
:101570000B461046194618A3D3E90023FEF79EFE3A
:1015800002460B464FF000001849FFF777F9024674
:101590000B46C7E9022312A3D3E90023D7E90201CE
:1015A000FEF78AFE02460B46C7E90223D7E902236B
:1015B00043EC172BB0EE470AF0EE670A1037BD4632
:1015C00080BD00BFAFF30080190D1714EB88773E84
:1015D000C2C3B46FEEAF2E3F90B8DE6EFD7F523FB8
:1015E0006666666666127140F0D870020000F03FD1
:1015F000B0B584B000AF78604FF00003FB6000230B
:10160000FB7211E0FB7A5B007A6813441B8807EEDB
:10161000903AF8EEE77A97ED037A77EE277AC7EDFE
:10162000037AFB7A0133FB72FB7A632BEAD997EDDD
:10163000037ADFED236AC7EE267AC7ED037AF868EE
:10164000FEF79AFF1AA3D3E90023FFF717F9024622
:101650000B4614461D461B4B1B681846FEF78CFFB5
:1016600002460B4620462946FEF7DEFF02460B46A1
:101670001046194602460B46FEF720FE02460B4670
:10168000104619460CA3D3E90023FFF7F7F80246EA
:101690000B4610461946FFF7BFFA034607EE903A8D
:1016A000B0EE670A1037BD46B0BD00BFAFF3008093
:1016B0000000000000FEAF40D0B359F5B9DAEE3FAC
:1016C0000000C8420800002080B582B000AFFFF7DC
:1016D0000FFE00237B6018E0FFF72AFE034607EEAB
:1016E000903AF8EE677AB0EE670AFFF7B7FEF0EED1
:1016F000407AFCEEE77A17EE903A99B2184A7B6886
:1017000022F813107B6801337B607B68632BE3DD79
:101710001348FFF72BFEF0EE407A124BC3ED007A30
:10172000FFF786FD00233B600AE0FFF701FE03465A
:1017300019460D4A3B6822F813103B6801333B60A1
:101740003B68632BF1DD0848FFF752FFF0EE407A6B
:10175000064BC3ED007A00BF0837BD4680BD00BF11
:101760001405002008000020DC0500200C000020EB
:1017700080B500AF2C4B1B78032B52D801A252F836
:1017800023F000BF95170008BD170008DF170008F9
:101790000118000801221021244802F031F9012229
:1017A0002021224802F02CF9642000F08BFE204B0F
:1017B00000221A701F4B01221A7032E00022102101
:1017C0001A4802F01DF901222021184802F018F9E8
:1017D000642000F077FE164B00221A7021E00122EF
:1017E0001021124802F00CF9002220210F4802F0CB
:1017F00007F9642000F066FE0D4B00221A7010E01D
:1018000001221021094802F0FBF80022202107489C
:1018100002F0F6F8642000F055FE054B01221A7024
:1018200000BF00BF80BD00BF800300200000024059
:10183000000000208203002080B582B000AF7860F5
:1018400017497868FEF7CCFC0346002B03D1154BF3
:1018500000221A701FE014497868FEF7C1FC0346A5
:10186000002B03D10F4B01221A7014E00F49786846
:10187000FEF7B6FC0346002B03D10A4B02221A7076
:1018800009E00B497868FEF7ABFC0346002B02D158
:10189000044B03221A7000BF0837BD4680BD00BF4D
:1018A00070AA00088003002078AA000880AA000817
:1018B00090AA000880B584B000AF78600B467B80AA
:1018C0007B681B68124A93421ED1142211491248A8
:1018D00003F01DFA114B1B681A68104B1B6822F0AD
:1018E00008021A607B88FB7307E0FB7B0C4A1344F9
:1018F00000225A76FB7B0133FB73FB7B132BF4D95D
:10190000074B012283F82D2000BF1037BD4680BD54
:10191000001001405503002094020020DC0200204A
:101920003C03002080B582B000AF78607B681A6805
:101930001D4B1B689A4232D11C4B1B7883F001036C
:10194000DBB2002B14D01A4BDB8D01339AB2184B4B
:10195000DA85174BDB8DB3F57A7F20D3012319226B
:101960001349144803F048F9114B0022DA8516E0B8
:101970000E4B1B78002B12D00D4BDB8D01339AB22E
:101980000B4BDA850A4BDB8D002B08D00123192283
:101990000749084803F030F9054B0022DA8500BFFB
:1019A0000837BD4680BD00BF4C020020000000206B
:1019B0003C03002094020020F0B587B006AF00F091
:1019C0000FFD00F021F900F05DFA00F03BFA00F0A5
:1019D000BFF900F083F900F00BFA7D4B1B78184635
:1019E000FFF7C6FE7B4802F0CDFC14227A497B4803
:1019F00003F08DF97A4B1B681A68794B1B6822F04B
:101A000008021A60774B1B78012B56D1FFF730FC88
:101A1000FFF78EFC03461846FFF772FDB0EE407AE2
:101A2000F0EE607A704B83ED027BFFF741FCFFF72D
:101A30007FFC034607EE903AF8EE677AB0EE670A4D
:101A4000FFF7D2FCF0EE407A674BC3ED007AFFF768
:101A5000EFFBFFF76DFC034607EE903AF8EE677A6E
:101A6000B0EE670AFFF7C0FCF0EE407AB0EE670A0E
:101A7000FFF716FDF0EE407A5B4BC3ED017A544B55
:101A80001B781E46584B1B681846FEF775FD04462A
:101A90000D46554B5B681846FEF76EFD524BD3E979
:101AA0000223CDE90423CDE90201CDE90045324608
:101AB0004E494F4805F09CF977E0FFF7D9FBFFF757
:101AC00037FC03461846FFF71BFDB0EE407AF0EEF8
:101AD000607A454B83ED027BFFF7EAFB454B1B78B1
:101AE0001C46FFF725FC03461A46434B23F81420F7
:101AF000FFF79EFB3F4B1B781C46FFF719FC034684
:101B00001A463E4B23F814203A4B1B780133DAB2C5
:101B1000384B1A70374B1B78642B05D1354B00229C
:101B20001A70374B01221A70354B1B78002B32D0BC
:101B30003148FFF75DFDF0EE407A2B4BC3ED007AA4
:101B40002E48FFF755FDF0EE407AB0EE670AFFF73A
:101B5000A7FCF0EE407A244BC3ED017A1C4B1B78B6
:101B60001E46214B1B681846FEF706FD04460D462F
:101B70001D4B5B681846FEF7FFFC1B4BD3E90223A5
:101B8000CDE90423CDE90201CDE9004532461749EC
:101B9000174805F02DF91B4B1B78002B04D0FFF7DD
:101BA00093FD184B00221A7000BF114B93F82D3093
:101BB000002B3FF427AF0848FFF73EFE044B1B788D
:101BC0001846FFF7D5FD0A4B002283F82D2019E7B0
:101BD000800300204C0200205503002094020020C6
:101BE000DC0200200000002070030020A0AA0008F2
:101BF0003C03002083030020840300204C040020C9
:101C0000810300208203002080B594B000AF07F16B
:101C1000200330220021184605F04DF907F10C038E
:101C200000221A605A609A60DA601A610023BB6071
:101C3000284B1B6C274A43F080531364254B1B6CC5
:101C400003F08053BB60BB6800237B60224B1B68A2
:101C500023F44043204A43F4004313601E4B1B68A7
:101C600003F440437B607B6802233B620123FB62F9
:101C700010233B630223BB630023FB6308233B6405
:101C800054237B640223BB640423FB6407F1200319
:101C9000184601F0CFFE0346002B01D000F034F9C6
:101CA0000F23FB6002233B6100237B614FF48053D1
:101CB000BB610023FB6107F10C030221184602F00F
:101CC00031F90346002B01D000F01EF900BF503758
:101CD000BD4680BD003802400070004080B500AFB6
:101CE000184B194A1A60174B4FF480325A60154B43
:101CF00000229A60134B01221A61124B01221A76BC
:101D0000104B002283F820200E4B0022DA620D4B8C
:101D10000E4A9A620B4B0022DA600A4B0122DA610A
:101D2000084B002283F83020064B01225A610548F7
:101D300000F0ECFB0346002B01D000F0E5F800BFFB
:101D400080BD00BF04020020002001400100000F00
:101D500080B586B000AF07F1080300221A605A6010
:101D60009A60DA603B4600221A605A601E4B1F4A96
:101D70001A601D4B4AF20F425A601B4B00229A60B8
:101D8000194B0122DA60184B00221A61164B00220F
:101D90005A61154B80229A61134802F0A3FA034658
:101DA000002B01D000F0B0F84FF48053BB6007F176
:101DB000080319460C4802F037FC0346002B01D0FB
:101DC00000F0A2F820233B6000237B603B461946CD
:101DD000054802F03FFE0346002B01D000F094F8C6
:101DE00000BF1837BD4680BD4C02002000000140F6
:101DF00080B500AF104B114A1A600F4B104A5A6061
:101E00000D4B00229A600C4B0022DA600A4B002234
:101E10001A61094B0C225A61074B00229A61064B4A
:101E20000022DA61044802F097FE0346002B01D03D
:101E300000F06AF800BF80BD94020020001001404D
:101E400080841E0080B582B000AF00237B600C4B05
:101E50001B6B0B4A43F480031363094B1B6B03F4A6
:101E600080037B607B68002200213A2001F00BF8A0
:101E70003A2001F024F800BF0837BD4680BD00BFFE
:101E80000038024080B588B000AF07F10C03002293
:101E90001A605A609A60DA601A610023BB60184BBE
:101EA0001B6B174A43F080031363154B1B6B03F046
:101EB0008003BB60BB6800237B60114B1B6B104A27
:101EC00043F0010313630E4B1B6B03F001037B60B4
:101ED0007B68002230210B4801F092FD3023FB602B
:101EE00001233B6100237B610023BB6107F10C03ED
:101EF0001946044801F000FC00BF2037BD4680BDF4
:101F0000003802400000024080B400AF72B600BF4B
:101F100000BFFDE780B483B000AF00237B60104BAF
:101F20005B6C0F4A43F4804353640D4B5B6C03F4CA
:101F300080437B607B6800233B60094B1B6C084A35
:101F400043F080531364064B1B6C03F080533B60DB
:101F50003B6800BF0C37BD465DF8047B704700BF8F
:101F60000038024080B58AB000AF786007F11403F2
:101F700000221A605A609A60DA601A617B681B68F6
:101F8000174A934227D100233B61164B5B6C154ADD
:101F900043F480735364134B5B6C03F480733B61B5
:101FA0003B690023FB600F4B1B6B0E4A43F00103A0
:101FB00013630C4B1B6B03F00103FB60FB680723EF
:101FC0007B610323BB610023FB6107F11403194606
:101FD000054801F091FB00BF2837BD4680BD00BF1A
:101FE00000200140003802400000024080B584B06B
:101FF00000AF78607B681B680E4A934215D10023BE
:10200000FB600D4B5B6C0C4A43F0010353640A4BBD
:102010005B6C03F00103FB60FB68002200211920C8
:1020200000F031FF192000F04AFF00BF1037BD4615
:1020300080BD00BF000001400038024080B58AB07A
:1020400000AF786007F1140300221A605A609A60AA
:10205000DA601A617B681B68344A934262D10023BC
:102060003B61334B5B6C324A43F010035364304B9B
:102070005B6C03F010033B613B690023FB602C4B5E
:102080001B6B2B4A43F001031363294B1B6B03F0BB
:102090000103FB60FB684FF4C0637B610223BB61FB
:1020A0000023FB6103233B6207237B6207F11403D8
:1020B0001946204801F020FB1F4B204A1A601E4B96
:1020C0004FF000625A601C4B00229A601A4B0022AB
:1020D000DA60194B4FF480621A61174B00225A6183
:1020E000154B00229A61144B0022DA61124B002238
:1020F0001A62114B00225A620F4800F0FBFE0346A1
:10210000002B01D0FFF700FF7B680B4ADA630A4A15
:102110007B68936300220021252000F0B4FE252077
:1021200000F0CDFE00BF2837BD4680BD0010014045
:102130000038024000000240DC02002040640240FF
:1021400080B400AF00BFFDE780B400AF00BFFDE783
:1021500080B400AF00BFFDE780B400AF00BFFDE773
:1021600080B400AF00BFFDE780B400AF00BFBD4644
:102170005DF8047B704780B400AF00BFBD465DF8DA
:10218000047B704780B400AF00BFBD465DF8047BA0
:10219000704780B500AF00F075F900BF80BD00004A
:1021A00080B500AF024802F04FF900BF80BD00BF0C
:1021B0004C02002080B500AF024802F005FE00BFCF
:1021C00080BD00BF9402002080B500AF024801F03E
:1021D00029F800BF80BD00BFDC02002080B400AF42
:1021E00001231846BD465DF8047B704780B582B078
:1021F00000AF7860396004F0B1FE034616221A6021
:102200004FF0FF3318460837BD4680BD80B582B019
:1022100000AF78604FF0FF317868FFF7E7FF00BF4D
:10222000FDE780B586B000AFF860B9607A60002342
:102230007B610AE0AFF300800146BB685A1CBA60BC
:10224000CAB21A707B6901337B617A697B689A42F2
:10225000F0DB7B6818461837BD4680BD80B586B078
:1022600000AFF860B9607A6000237B6109E0BB6869
:102270005A1CBA601B781846AFF300807B690133A3
:102280007B617A697B689A42F1DB7B681846183774
:10229000BD4680BD80B483B000AF78604FF0FF339F
:1022A00018460C37BD465DF8047B704780B483B098
:1022B00000AF786039603B684FF400525A600023E9
:1022C00018460C37BD465DF8047B704780B483B078
:1022D00000AF7860012318460C37BD465DF8047BDB
:1022E000704780B485B000AFF860B9607A600023B1
:1022F00018461437BD465DF8047B704780B586B03C
:1023000000AF7860144A154BD31A7B617B693B613F
:10231000134B1B68002B02D1114B124A1A60104B51
:102320001A687B6813443A699A4207D204F016FE91
:1023300003460C221A604FF0FF3309E0084B1B687C
:10234000FB60074B1A687B681344054A1360FB68FF
:1023500018461837BD4680BD00000120000400006B
:10236000A4060020F807002080B400AF064BD3F885
:102370008830054A43F47003C2F8883000BFBD4678
:102380005DF8047B704700BF00ED00E0DFF834D05B
:10239000FFF7EAFF0C480D490D4A002302E0D4582C
:1023A000C4500433C4188C42F9D30A4A0A4C00239F
:1023B00001E013600432A242FBD304F0D5FDFFF725
:1023C000FBFA70470000012000000020E40100201B
:1023D00018AF0008E8010020F8070020FEE7000021
:1023E00080B500AF0E4B1B680D4A43F400731360B9
:1023F0000B4B1B680A4A43F480631360084B1B684D
:10240000074A43F480731360032000F031FD0F206E
:1024100000F008F8FFF77EFD0023184680BD00BFDE
:10242000003C024080B582B000AF7860124B1A6861
:10243000124B1B7819464FF47A73B3FBF1F3B2FBDE
:10244000F3F3184600F049FD0346002B01D00123A9
:102450000EE07B680F2B0AD8002279684FF0FF301E
:1024600000F011FD064A7B681360002300E00123A1
:1024700018460837BD4680BD100000201800002017
:102480001400002080B400AF064B1B781A46064BA0
:102490001B681344044A136000BFBD465DF8047B0B
:1024A000704700BF18000020A806002080B400AFCD
:1024B000034B1B681846BD465DF8047B704700BFA0
:1024C000A806002080B584B000AF7860FFF7EEFF6B
:1024D000B8607B68FB60FB68B3F1FF3F05D00A4B37
:1024E0001B781A46FB681344FB6000BFFFF7DEFF52
:1024F0000246BB68D31AFA689A42F7D800BF00BFF9
:102500001037BD4680BD00BF1800002080B584B0E4
:1025100000AF78600023FB737B68002B01D101239F
:1025200033E07B681B6C002B09D17868FFF71AFD3C
:102530007B6800225A647B68002283F83C207B6819
:102540001B6C03F01003002B18D17B681B6C23F469
:10255000885323F0020343F002027B681A64786810
:1025600000F0BAFA7B6800225A647B681B6C23F087
:10257000030343F001027B681A6401E00123FB734B
:102580007B68002283F83C20FB7B18461037BD4651
:1025900080BD000080B485B000AF78600023BB60D0
:1025A0007B6893F83C30012B01D1022397E07B68D4
:1025B000012283F83C207B681B689B6803F00103C1
:1025C000012B18D07B681B689A687B681B6842F0F7
:1025D00001029A60454B1B68454AA2FB03239A0CF3
:1025E00013465B001344BB6002E0BB68013BBB6069
:1025F000BB68002BF9D17B681B689B6803F0010363
:10260000012B5FD17B681B6C23F4E06323F0010393
:1026100043F480727B681A647B681B685B6803F410
:102620008063002B07D07B681B6C23F4405343F47A
:1026300080527B681A647B681B6C03F48053B3F58B
:10264000805F06D17B685B6C23F006027B685A646E
:1026500002E07B6800225A647B68002283F83C20F9
:10266000244BFB607B681B686FF022021A60FB68DA
:102670005B6803F01F03002B0FD17B681B689B680E
:1026800003F04053002B29D17B681B689A687B6854
:102690001B6842F080429A6020E07B681B68164A03
:1026A00093421BD17B681B689B6803F04053002B4F
:1026B00014D17B681B689A687B681B6842F0804273
:1026C0009A600BE07B681B6C43F010027B681A6415
:1026D0007B685B6C43F001027B685A6400231846F8
:1026E0001437BD465DF8047B704700BF1000002022
:1026F00083DE1B43002301400020014080B483B0EF
:1027000000AF78607B6893F83C30012B01D1022345
:1027100021E07B68012283F83C207B681B689A6873
:102720007B681B6822F001029A607B681B689B68CB
:1027300003F00103002B09D17B681B6C23F4885341
:1027400023F0010343F001027B681A647B680022D6
:1027500083F83C20002318460C37BD465DF8047B07
:10276000704780B584B000AF786039600023FB60AB
:102770007B681B689B6803F48063B3F5806F13D19B
:102780007B681B689B6803F48073B3F5807F0BD173
:102790007B681B6C43F020027B681A647B68002214
:1027A00083F83C20012363E0FFF780FEF86021E01E
:1027B0003B68B3F1FF3F1DD03B68002B07D0FFF70C
:1027C00075FE0246FB68D31A3A689A4212D27B68B9
:1027D0001B681B6803F00203022B0BD07B681B6C89
:1027E00043F004027B681A647B68002283F83C2073
:1027F00003233DE07B681B681B6803F00203022B88
:10280000D6D17B681B686FF012021A607B681B6C64
:1028100043F400727B681A647B681B689B6803F052
:102820004053002B23D17B681B7E002B1FD17B687C
:102830001B68DB6A03F47003002B06D07B681B68FF
:102840009B6803F48063002B11D17B681B6C23F41D
:1028500080727B681A647B681B6C03F48053002BC6
:1028600005D17B681B6C43F001027B681A6400236E
:1028700018461037BD4680BD80B483B000AF786085
:102880007B681B68DB6C18460C37BD465DF8047B23
:102890007047000080B485B000AF786039600023D5
:1028A000BB607B6893F83C30012B01D1022305E12A
:1028B0007B68012283F83C203B681B68092B25D9E3
:1028C0007B681B68D9683B681B689BB21A46134635
:1028D0005B0013441E3B072202FA03F3DA437B68D2
:1028E0001B680A40DA607B681B68D9683B689A6895
:1028F0003B681B689BB2184603465B0003441E3BC3
:102900009A407B681B680A43DA6022E07B681B6898
:1029100019693B681B689BB21A4613465B00134457
:10292000072202FA03F3DA437B681B680A401A6144
:102930007B681B6819693B689A683B681B689BB297
:10294000184603465B0003449A407B681B680A43B1
:102950001A613B685B68062B24D87B681B68596B3F
:102960003B685A6813469B001344053B1F2202FA3A
:1029700003F3DA437B681B680A405A637B681B6871
:10298000596B3B681B689BB218463B685A681346F4
:102990009B001344053B00FA03F27B681B680A4363
:1029A0005A634CE03B685B680C2B24D87B681B683F
:1029B000196B3B685A6813469B001344233B1F2244
:1029C00002FA03F3DA437B681B680A401A637B68E8
:1029D0001B68196B3B681B689BB218463B685A68BA
:1029E00013469B001344233B00FA03F27B681B68E9
:1029F0000A431A6323E07B681B68D96A3B685A68FC
:102A000013469B001344413B1F2202FA03F3DA43AF
:102A10007B681B680A40DA627B681B68D96A3B687E
:102A20001B689BB218463B685A6813469B001344C8
:102A3000413B00FA03F27B681B680A43DA62224BCF
:102A4000FB607B681B68214A934209D13B681B6885
:102A5000122B05D1FB685B6843F48002FB685A6067
:102A60007B681B68194A934223D13B681B68102B73
:102A700003D03B681B68112B1BD1FB685B6843F4D8
:102A80000002FB685A603B681B68102B11D1104B89
:102A90001B68104AA2FB03239A0C13469B001344A5
:102AA0005B00BB6002E0BB68013BBB60BB68002B06
:102AB000F9D17B68002283F83C20002318461437A4
:102AC000BD465DF8047B70470023014000200140B3
:102AD0001000002083DE1B4380B485B000AF786017
:102AE000794BFB60FB685B6823F44032FB685A60FB
:102AF000FB685A687B685B681A43FB685A607B68AE
:102B00001B685A687B681B6822F480725A607B6875
:102B10001B6859687B681B691A027B681B680A433B
:102B20005A607B681B685A687B681B6822F0407299
:102B30005A607B681B6859687B689A687B681B6869
:102B40000A435A607B681B689A687B681B6822F49A
:102B500000629A607B681B6899687B68DA687B68AA
:102B60001B680A439A607B689B6A584A934222D04A
:102B70007B681B689A687B681B6822F070629A60A9
:102B80007B681B6899687B689A6A7B681B680A4344
:102B90009A607B681B689A687B681B6822F04052C9
:102BA0009A607B681B6899687B68DA6A7B681B6837
:102BB0000A439A600FE07B681B689A687B681B6811
:102BC00022F070629A607B681B689A687B681B6859
:102BD00022F040529A607B681B689A687B681B6889
:102BE00022F002029A607B681B6899687B681B7EF2
:102BF0005A007B681B680A439A607B6893F8203010
:102C0000002B1BD07B681B685A687B681B6842F4EA
:102C100000625A607B681B685A687B681B6822F4F4
:102C200060425A607B681B6859687B685B6A013B3D
:102C30005A037B681B680A435A6007E07B681B687D
:102C40005A687B681B6822F400625A607B681B68C4
:102C5000DA6A7B681B6822F47002DA627B681B68A0
:102C6000D96A7B68DB69013B1A057B681B680A43EC
:102C7000DA627B681B689A687B681B6822F40072C2
:102C80009A607B681B6899687B6893F830305A02B9
:102C90007B681B680A439A607B681B689A687B683C
:102CA0001B6822F480629A607B681B6899687B6865
:102CB0005B699A027B681B680A439A6000BF1437FD
:102CC000BD465DF8047B7047002301400100000F02
:102CD00080B485B000AF78607B6803F00703FB60C9
:102CE0000C4BDB68BB60BA684FF6FF031340BB6058
:102CF000FB681A02BB68134343F0BF6343F400331D
:102D0000BB60044ABB68D36000BF1437BD465DF8A2
:102D1000047B704700ED00E080B400AF044BDB683B
:102D20001B0A03F007031846BD465DF8047B704795
:102D300000ED00E080B483B000AF0346FB7197F96B
:102D40000730002B0BDBFB7903F01F02074997F9D3
:102D500007305B09012000FA02F241F8232000BF8E
:102D60000C37BD465DF8047B704700BF00E100E012
:102D700080B483B000AF03463960FB7197F9073028
:102D8000002B0ADB3B68DAB20C4997F907301201D5
:102D9000D2B20B4483F800230AE03B68DAB2084958
:102DA000FB7903F00F03043B1201D2B20B441A76F5
:102DB00000BF0C37BD465DF8047B704700E100E0C2
:102DC00000ED00E080B489B000AFF860B9607A60CF
:102DD000FB6803F00703FB61FB69C3F10703042BE6
:102DE00028BF0423BB61FB690433062B02D9FB69AE
:102DF000033B00E000237B614FF0FF32BB6902FA26
:102E000003F3DA43BB681A407B699A404FF0FF3105
:102E10007B6901FA03F3D9437B680B4013431846DF
:102E20002437BD465DF8047B7047000080B582B052
:102E300000AF78607B68013BB3F1807F01D3012351
:102E40000FE00A4A7B68013B53600F214FF0FF30CF
:102E5000FFF78EFF054B00229A60044B07221A6091
:102E6000002318460837BD4680BD00BF10E000E0D3
:102E700080B582B000AF78607868FFF729FF00BFA7
:102E80000837BD4680BD80B586B000AF0346B96047
:102E90007A60FB7300237B61FFF73EFF78617A68FD
:102EA000B9687869FFF78EFF024697F90F3011462F
:102EB0001846FFF75DFF00BF1837BD4680BD80B5DF
:102EC00082B000AF0346FB7197F907301846FFF751
:102ED00031FF00BF0837BD4680BD80B582B000AF6E
:102EE00078607868FFF7A2FF034618460837BD46AA
:102EF00080BD000080B586B000AF786000237B61A4
:102F0000FFF7D4FA38617B68002B01D1012399E0E7
:102F10007B68022283F835207B68002283F8342006
:102F20007B681B681A687B681B6822F001021A60C4
:102F30000FE0FFF7BBFA02463B69D31A052B08D90D
:102F40007B6820225A657B68032283F8352003239F
:102F500078E07B681B681B6803F00103002BE8D155
:102F60007B681B681B687B617A69384B13407B6107
:102F70007B685A687B689B681A437B68DB681A43E6
:102F80007B681B691A437B685B691A437B689B6992
:102F90001A437B68DB691A437B681B6A13437A69AF
:102FA00013437B617B685B6A042B07D17B68DA6A19
:102FB0007B681B6B13437A6913437B617B681B68D7
:102FC0007A691A607B681B685B697B617B6923F0A7
:102FD00007037B617B685B6A7A6913437B617B686B
:102FE0005B6A042B17D17B689B6A7A6913437B6108
:102FF0007B68DB6A002B0ED0786800F001FB03468B
:10300000002B08D07B6840225A657B68012283F838
:103010003520012316E07B681B687A695A6178685D
:1030200000F0B8FA0346FB607B68DB6D3F229A40F4
:10303000FB689A607B6800225A657B68012283F8EE
:103040003520002318461837BD4680BD3F8010F05C
:1030500080B586B000AFF860B9607A603B6000234D
:10306000FB75FB689B6D3B61FB6893F83430012B6B
:1030700001D1022340E0FB68012283F83420FB6881
:1030800093F83530DBB2012B2FD1FB68022283F895
:103090003520FB6800225A653B687A68B968F86891
:1030A00000F04AFAFB68DB6D3F229A403B699A6068
:1030B000FB681B681A68FB681B6842F016021A60FE
:1030C000FB681B6C002B07D0FB681B681A68FB6849
:1030D0001B6842F008021A60FB681B681A68FB68EC
:1030E0001B6842F001021A6005E0FB68002283F8C9
:1030F00034200223FB75FB7D18461837BD4680BD82
:1031000080B584B000AF78607B689B6DFB60FFF793
:10311000CDF9B8607B6893F83530DBB2022B08D06C
:103120007B6880225A657B68002283F83420012363
:1031300052E07B681B681A687B681B6822F01602E5
:103140001A607B681B685A697B681B6822F08002E2
:103150005A617B681B6C002B03D17B689B6C002B36
:1031600007D07B681B681A687B681B6822F008021E
:103170001A607B681B681A687B681B6822F0010272
:103180001A6013E0FFF792F90246BB68D31A052BC9
:103190000CD97B6820225A657B68032283F835208E
:1031A0007B68002283F83420032315E07B681B68CA
:1031B0001B6803F00103002BE4D17B68DB6D3F2229
:1031C0009A40FB689A607B68012283F835207B680F
:1031D000002283F83420002318461037BD4680BDF6
:1031E00080B483B000AF78607B6893F83530DBB291
:1031F000022B04D07B6880225A6501230CE07B6897
:10320000052283F835207B681B681A687B681B6879
:1032100022F001021A60002318460C37BD465DF803
:10322000047B704780B586B000AF78600023BB6038
:103230008E4B1B688E4AA2FB03239B0A7B617B6833
:103240009B6D3B613B691B68FB607B68DB6D082203
:103250009A40FB681340002B1AD07B681B681B68E0
:1032600003F00403002B13D07B681B681A687B688B
:103270001B6822F004021A607B68DB6D08229A400A
:103280003B699A607B685B6D43F001027B685A651D
:103290007B68DB6D01229A40FB681340002B12D043
:1032A0007B681B685B6903F08003002B0BD07B6895
:1032B000DB6D01229A403B699A607B685B6D43F04D
:1032C00002027B685A657B68DB6D04229A40FB68CA
:1032D0001340002B12D07B681B681B6803F00203AD
:1032E000002B0BD07B68DB6D04229A403B699A600F
:1032F0007B685B6D43F004027B685A657B68DB6D1D
:1033000010229A40FB681340002B43D07B681B6857
:103310001B6803F00803002B3CD07B68DB6D102298
:103320009A403B699A607B681B681B6803F48023A2
:10333000002B18D07B681B681B6803F40023002B4C
:1033400008D17B681B6C002B24D07B681B6C7868D1
:1033500098471FE07B689B6C002B1BD07B689B6CA5
:103360007868984716E07B681B681B6803F48073D5
:10337000002B07D17B681B681A687B681B6822F0EA
:1033800008021A607B681B6C002B03D07B681B6CE7
:10339000786898477B68DB6D20229A40FB68134071
:1033A000002B00F08F807B681B681B6803F0100304
:1033B000002B00F087807B68DB6D20229A403B6900
:1033C0009A607B6893F83530DBB2052B36D17B6889
:1033D0001B681A687B681B6822F016021A607B68FB
:1033E0001B685A697B681B6822F080025A617B68FF
:1033F0001B6C002B03D17B689B6C002B07D07B6878
:103400001B681A687B681B6822F008021A607B68D8
:10341000DB6D3F229A403B699A607B68012283F80A
:1034200035207B68002283F834207B681B6D002BDD
:103430007ED07B681B6D7868984779E07B681B6855
:103440001B6803F48023002B1DD07B681B681B685E
:1034500003F40023002B0DD17B685B6C002B31D073
:103460007B685B6C786898472CE000BF10000020F8
:10347000B5814E1B7B68DB6B002B23D07B68DB6B3D
:10348000786898471EE07B681B681B6803F48073AC
:10349000002B0FD17B681B681A687B681B6822F0C1
:1034A00010021A607B68012283F835207B680022B5
:1034B00083F834207B68DB6B002B03D07B68DB6BED
:1034C000786898477B685B6D002B32D07B685B6DBA
:1034D00003F00103002B22D07B68052283F83520FE
:1034E0007B681B681A687B681B6822F001021A60FF
:1034F000BB680133BB607A699A4207D37B681B685B
:103500001B6803F00103002BF2D100E000BF7B68D1
:10351000012283F835207B68002283F834207B6801
:10352000DB6C002B05D07B68DB6C7868984700E08B
:1035300000BF1837BD4680BD80B485B000AFF860CD
:10354000B9607A603B60FB681B681A68FB681B689F
:1035500022F480221A60FB681B683A685A60FB6894
:103560009B68402B08D1FB681B687A689A60FB68EF
:103570001B68BA68DA6007E0FB681B68BA689A6083
:10358000FB681B687A68DA6000BF1437BD465DF8D7
:10359000047B704780B485B000AF78607B681B689F
:1035A000DBB2103B144AA2FB03231B09FB60134A46
:1035B000FB6813441B781A467B68DA65FB68032BAB
:1035C00009D97B681B6823F47F7323F003031A1D5A
:1035D0007B689A6507E07B681B6823F47F7323F0A0
:1035E00003037A6893657B689B6D18461437BD4664
:1035F0005DF8047B704700BFABAAAAAAD0AA000856
:1036000080B485B000AF78600023FB737B689B6A51
:10361000BB607B689B69002B1FD1BB68032B56D80E
:1036200001A252F823F000BF393600084B360008DB
:1036300039360008CF3600087B68DB6A03F08073F8
:10364000002B46D00123FB7343E07B68DB6AB3F1B8
:10365000C07F40D10123FB733DE07B689B69B3F5DC
:10366000005F21D1BB68032B37D801A252F823F0A9
:103670008136000887360008813600089936000830
:103680000123FB7330E07B68DB6A03F08073002B5F
:1036900025D00123FB7322E07B68DB6AB3F1C07F96
:1036A0001FD10123FB731CE0BB68022B03D9BB684D
:1036B000032B03D018E00123FB7315E07B68DB6A62
:1036C00003F08073002B0ED00123FB730BE000BFCF
:1036D0000AE000BF08E000BF06E000BF04E000BF52
:1036E00002E000BF00E000BFFB7B18461437BD4678
:1036F0005DF8047B704700BF80B489B000AF78608C
:10370000396000237B6100233B610023BB61002300
:10371000FB6159E10122FB6902FA03F37B613B681B
:103720001B687A6913403B613A697B699A4240F0B1
:1037300048813B685B6803F00303012B05D03B68BD
:103740005B6803F00303022B30D17B689B68BB618D
:10375000FB695B00032202FA03F3DB43BA691340FF
:10376000BB613B68DA68FB695B0002FA03F3BA6984
:103770001343BB617B68BA699A607B685B68BB6115
:103780000122FB6902FA03F3DB43BA691340BB6110
:103790003B685B681B0903F00102FB6902FA03F353
:1037A000BA691343BB617B68BA695A603B685B685E
:1037B00003F00303032B17D07B68DB68BB61FB6955
:1037C0005B00032202FA03F3DB43BA691340BB61D7
:1037D0003B689A68FB695B0002FA03F3BA6913431A
:1037E000BB617B68BA69DA603B685B6803F003031E
:1037F000022B23D1FB69DA087B68083253F82230A8
:10380000BB61FB6903F007039B000F2202FA03F37D
:10381000DB43BA691340BB613B681A69FB6903F07B
:1038200007039B0002FA03F3BA691343BB61FB6908
:10383000DA087B680832B96943F822107B681B6894
:10384000BB61FB695B00032202FA03F3DB43BA6945
:103850001340BB613B685B6803F00302FB695B00DC
:1038600002FA03F3BA691343BB617B68BA691A6051
:103870003B685B6803F44033002B00F0A280002318
:10388000FB60574B5B6C564A43F480435364544B84
:103890005B6C03F48043FB60FB68524AFB699B0846
:1038A000023352F82330BB61FB6903F003039B0032
:1038B0000F2202FA03F3DB43BA691340BB617B6852
:1038C000494A934219D07B68484A934213D07B6897
:1038D000474A93420DD07B68464A934207D07B68A3
:1038E000454A934201D1042308E0072306E003235D
:1038F00004E0022302E0012300E00023FA6902F061
:10390000030292009340BA691343BB613549FB69D6
:103910009B080233BA6941F82320384B9B68BB618E
:103920003B69DB43BA691340BB613B685B6803F4E6
:103930008013002B03D0BA693B691343BB612F4A44
:10394000BB6993602D4BDB68BB613B69DB43BA69A4
:103950001340BB613B685B6803F40013002B03D08A
:10396000BA693B691343BB61244ABB69D360234BEB
:103970005B68BB613B69DB43BA691340BB613B6871
:103980005B6803F40033002B03D0BA693B6913432F
:10399000BB611A4ABB695360184B1B68BB613B692A
:1039A000DB43BA691340BB613B685B6803F4803357
:1039B000002B03D0BA693B691343BB610F4ABB6953
:1039C0001360FB690133FB61FB690F2B7FF6A2AE2D
:1039D00000BF00BF2437BD465DF8047B704700BFC1
:1039E000003802400038014000000240000402405C
:1039F00000080240000C024000100240003C014060
:103A000080B483B000AF78600B467B8013467B7038
:103A10007B78002B03D07A887B689A6103E07B88EF
:103A20001A047B689A6100BF0C37BD465DF8047BC1
:103A30007047000080B586B000AF78607B68002BCF
:103A400001D1012367E27B681B6803F00103002BAF
:103A500075D0884B9B6803F00C03042B0CD0854B6E
:103A60009B6803F00C03082B12D1824B5B6803F4B4
:103A70008003B3F5800F0BD17E4B1B6803F400333A
:103A8000002B5BD07B685B68002B57D1012342E29F
:103A90007B685B68B3F5803F06D1764B1B68754A3F
:103AA00043F4803313601DE07B685B68B3F5A02F9F
:103AB0000CD1704B1B686F4A43F4802313606D4B2D
:103AC0001B686C4A43F4803313600BE0694B1B683E
:103AD000684A23F480331360664B1B68654A23F4FD
:103AE000802313607B685B68002B13D0FEF7DEFC3D
:103AF000386108E0FEF7DAFC02463B69D31A642B12
:103B000001D9032307E25B4B1B6803F40033002B4E
:103B1000F0D014E0FEF7CAFC386108E0FEF7C6FCFE
:103B200002463B69D31A642B01D90323F3E1514BBD
:103B30001B6803F40033002BF0D100E000BF7B686A
:103B40001B6803F00203002B63D04A4B9B6803F011
:103B50000C03002B0BD0474B9B6803F00C03082B86
:103B60001CD1444B5B6803F48003002B16D1414BFE
:103B70001B6803F00203002B05D07B68DB68012B78
:103B800001D00123C7E13B4B1B6823F0F8027B689F
:103B90001B69DB00374913430B603AE07B68DB6845
:103BA000002B20D0344B01221A60FEF77FFC3861D5
:103BB00008E0FEF77BFC02463B69D31A022B01D9D1
:103BC0000323A8E12B4B1B6803F00203002BF0D06A
:103BD000284B1B6823F0F8027B681B69DB00254932
:103BE00013430B6015E0244B00221A60FEF75EFCC5
:103BF000386108E0FEF75AFC02463B69D31A022BF3
:103C000001D9032387E11B4B1B6803F00203002B40
:103C1000F0D17B681B6803F00803002B36D07B686B
:103C20005B69002B16D0154B01221A60FEF73EFC93
:103C3000386108E0FEF73AFC02463B69D31A022BD2
:103C400001D9032367E10B4B5B6F03F00203002BE9
:103C5000F0D01BE0094B00221A60FEF727FC386108
:103C60000EE0FEF723FC02463B69D31A022B07D96C
:103C7000032350E10038024000004742800E4742D3
:103C8000884B5B6F03F00203002BEAD17B681B6853
:103C900003F00403002B00F097800023FB75814B99
:103CA0001B6C03F08053002B0FD10023BB607D4BB6
:103CB0001B6C7C4A43F0805313647A4B1B6C03F0FB
:103CC0008053BB60BB680123FB75774B1B6803F413
:103CD0008073002B18D1744B1B68734A43F48073B4
:103CE0001360FEF7E3FB386108E0FEF7DFFB0246F6
:103CF0003B69D31A022B01D903230CE16A4B1B68E1
:103D000003F48073002BF0D07B689B68012B06D1F5
:103D1000644B1B6F634A43F0010313671CE07B682D
:103D20009B68052B0CD15F4B1B6F5E4A43F004036D
:103D300013675C4B1B6F5B4A43F0010313670BE097
:103D4000584B1B6F574A23F001031367554B1B6FEA
:103D5000544A23F0040313677B689B68002B15D03B
:103D6000FEF7A4FB38610AE0FEF7A0FB02463B69C0
:103D7000D31A41F28832934201D90323CBE0494B55
:103D80001B6F03F00203002BEED014E0FEF78EFB56
:103D900038610AE0FEF78AFB02463B69D31A41F21A
:103DA0008832934201D90323B5E03E4B1B6F03F0E9
:103DB0000203002BEED1FB7D012B05D1394B1B6C8F
:103DC000384A23F0805313647B689B69002B00F012
:103DD000A180344B9B6803F00C03082B5CD07B68FC
:103DE0009B69022B41D1314B00221A60FEF75EFB2A
:103DF000386108E0FEF75AFB02463B69D31A022BF2
:103E000001D9032387E0274B1B6803F00073002BC5
:103E1000F0D17B68DA697B681B6A1A437B685B6A4E
:103E20009B011A437B689B6A5B08013B1B041A4396
:103E30007B68DB6A1B061B4913434B601B4B01224B
:103E40001A60FEF733FB386108E0FEF72FFB0246ED
:103E50003B69D31A022B01D903235CE0114B1B6889
:103E600003F00073002BF0D054E0104B00221A60D6
:103E7000FEF71CFB386108E0FEF718FB02463B69C1
:103E8000D31A022B01D9032345E0064B1B6803F02C
:103E90000073002BF0D13DE07B689B69012B07D1BB
:103EA000012338E0003802400070004060004742C3
:103EB0001B4B5B68FB607B689B69012B28D0FB6810
:103EC00003F480027B68DB699A4221D1FB6803F02E
:103ED0003F027B681B6A9A421AD1FA6847F6C073A0
:103EE00013407A68526A9201934211D1FB6803F43D
:103EF00040327B689B6A5B08013B1B049A4207D1F6
:103F0000FB6803F070627B68DB6A1B069A4201D093
:103F1000012300E0002318461837BD4680BD00BFCE
:103F20000038024080B584B000AF786039607B68AB
:103F3000002B01D10123CCE0684B1B6803F0070381
:103F40003A689A420CD9654B3A68D2B21A70634B00
:103F50001B6803F007033A689A4201D00123B8E0D6
:103F60007B681B6803F00203002B20D07B681B6872
:103F700003F00403002B05D0594B9B68584A43F4C7
:103F8000E05393607B681B6803F00803002B05D0A7
:103F9000534B9B68524A43F460439360504B9B6879
:103FA00023F0F0027B689B684D4913438B607B686C
:103FB0001B6803F00103002B44D07B685B68012B76
:103FC00007D1474B1B6803F40033002B19D10123A1
:103FD0007FE07B685B68022B03D07B685B68032B08
:103FE00007D13F4B1B6803F00073002B09D101235D
:103FF0006FE03B4B1B6803F00203002B01D1012350
:1040000067E0374B9B6823F003027B685B683449A9
:1040100013438B60FEF74AFAF8600AE0FEF746FAAF
:104020000246FB68D31A41F28832934201D9032336
:104030004FE02B4B9B6803F00C027B685B689B0096
:104040009A42EBD1254B1B6803F007033A689A426A
:104050000CD2224B3A68D2B21A70204B1B6803F084
:1040600007033A689A4201D0012332E07B681B685B
:1040700003F00403002B08D0194B9B6823F4E05293
:104080007B68DB68164913438B607B681B6803F011
:104090000803002B09D0124B9B6823F460427B6815
:1040A0001B69DB000E4913438B6000F021F80246C8
:1040B0000B4B9B681B0903F00F030A49CB5C22FAE8
:1040C00003F3094A1360094B1B681846FEF7AAF967
:1040D000002318461037BD4680BD00BF003C02409B
:1040E00000380240B8AA0008100000201400002088
:1040F0002DE9B04F90B000AF00237B630023FB633A
:1041000000233B630023BB63594B9B6803F00C0304
:10411000082B0DD0082B00F2A180002B02D0042B1D
:1041200003D09BE0534BBB639BE0534BBB6398E0D6
:104130004F4B5B6803F03F037B634D4B5B6803F4BD
:104140008003002B28D04A4B5B689B0900223B620E
:104150007A623B6AC3F308000021474B03FB01F27C
:10416000002300FB03F31344434AA0FB0212FA624C
:104170000A46BA62FA6A1344FB627B6B0022BB6197
:10418000FA61D7E90623D7E90A01FCF7A3FE024644
:104190000B461346FB6353E0354B5B689B090022DB
:1041A0003B617A613B69C3F3080A4FF0000B52464A
:1041B0005B464FF000004FF00001590141EAD26127
:1041C000500102460B46B2EB0A0863EB0B094FF0B5
:1041D00000024FF000034FEA891343EA98634FEA65
:1041E0008812B2EB080463EB09054FF000024FF0B0
:1041F0000003EB0043EA5473E20014461D4614EB3F
:104200000A033B6045EB0B037B604FF000024FF06D
:104210000003D7E9004529468B02214643EA915322
:1042200021468A02104619467B6B0022BB60FA6069
:10423000D7E90223FCF74EFE02460B461346FB630A
:104240000B4B5B681B0C03F0030301335B003B6308
:10425000FA6B3B6BB2FBF3F3BB6302E0054BBB6352
:1042600000BFBB6B18464037BD46BDE8B08F00BFEE
:10427000003802400024F40040787D0180B400AF93
:10428000034B1B681846BD465DF8047B704700BFB2
:104290001000002080B500AFFFF7F0FF0246054B8D
:1042A0009B689B0A03F007030349CB5C22FA03F3E4
:1042B000184680BD00380240C8AA000880B500AF8B
:1042C000FFF7DCFF0246054B9B685B0B03F007031F
:1042D0000349CB5C22FA03F3184680BD0038024044
:1042E000C8AA000880B582B000AF78607B68002B58
:1042F00001D1012341E07B6893F83D30DBB2002B14
:1043000006D17B68002283F83C207868FDF76EFEBA
:104310007B68022283F83D207B681A687B6804333F
:104320001946104600F070FA7B68012283F8462097
:104330007B68012283F83E207B68012283F83F20BE
:104340007B68012283F840207B68012283F84120AA
:104350007B68012283F842207B68012283F8432096
:104360007B68012283F844207B68012283F8452082
:104370007B68012283F83D20002318460837BD469C
:1043800080BD000080B485B000AF78607B6893F892
:104390003D30DBB2012B01D0012344E07B680222D7
:1043A00083F83D207B681B68DA687B681B6842F0F5
:1043B0000102DA607B681B681E4A934218D07B6852
:1043C0001B68B3F1804F13D07B681B681A4A934275
:1043D0000ED07B681B68194A934209D07B681B6822
:1043E000174A934204D07B681B68164A934211D146
:1043F0007B681B689B6803F00703FB60FB68062B68
:1044000010D07B681B681A687B681B6842F0010249
:104410001A6007E07B681B681A687B681B6842F0BB
:1044200001021A60002318461437BD465DF8047B6C
:10443000704700BF00000140000400400008004039
:10444000000C00400040014080B584B000AF7860AF
:104450007B681B68DB68FB607B681B681B69BB6053
:10446000BB6803F00203002B20D0FB6803F00203BB
:10447000002B1BD07B681B686FF002021A617B68FF
:1044800001221A777B681B689B6903F00303002BEA
:1044900003D0786800F099F905E0786800F08BF9AE
:1044A000786800F09CF97B6800221A77BB6803F0FB
:1044B0000403002B20D0FB6803F00403002B1BD067
:1044C0007B681B686FF004021A617B6802221A770E
:1044D0007B681B689B6903F44073002B03D07868EA
:1044E00000F073F905E0786800F065F9786800F08D
:1044F00076F97B6800221A77BB6803F00803002B6B
:1045000020D0FB6803F00803002B1BD07B681B68DE
:104510006FF008021A617B6804221A777B681B68B7
:10452000DB6903F00303002B03D0786800F04DF93A
:1045300005E0786800F03FF9786800F050F97B6892
:1045400000221A77BB6803F01003002B20D0FB6811
:1045500003F01003002B1BD07B681B686FF0100268
:104560001A617B6808221A777B681B68DB6903F491
:104570004073002B03D0786800F027F905E07868D5
:1045800000F019F9786800F02AF97B6800221A77A0
:10459000BB6803F00103002B0CD0FB6803F00103A0
:1045A000002B07D07B681B686FF001021A617868E6
:1045B000FDF7B8F9BB6803F08003002B0CD0FB6853
:1045C00003F08003002B07D07B681B686FF080022C
:1045D0001A61786800F0B6FABB6803F04003002B5C
:1045E0000CD0FB6803F04003002B07D07B681B68EE
:1045F0006FF040021A61786800F0FBF8BB6803F0C6
:104600002003002B0CD0FB6803F02003002B07D005
:104610007B681B686FF020021A61786800F088FAE6
:1046200000BF1037BD4680BD80B584B000AF786054
:1046300039600023FB737B6893F83C30012B01D178
:104640000223B4E07B68012283F83C207B680222CD
:1046500083F83D207B681B689B68BB60BB6823F0C8
:104660007703BB60BB6823F47F43BB607B681B6838
:10467000BA689A603B681B68B3F5005F3ED0B3F53B
:10468000005F00F28780B3F5805F00F08680B3F5AD
:10469000805F7FD8702B1AD0702B7BD8602B50D0C6
:1046A000602B77D8502B3CD0502B73D8402B58D050
:1046B000402B6FD8302B64D0302B6BD8202B60D0A0
:1046C000202B67D8002B5CD0102B5AD062E07B687F
:1046D00018683B6899683B685A683B68DB6800F07B
:1046E00099F97B681B689B68BB60BB6843F07703E4
:1046F000BB607B681B68BA689A604FE07B6818688B
:104700003B6899683B685A683B68DB6800F082F94F
:104710007B681B689A687B681B6842F480429A60D9
:104720003CE07B6818683B6859683B68DB681A4660
:1047300000F0F6F87B681B685021184600F04FF92E
:104740002CE07B6818683B6859683B68DB681A4650
:1047500000F015F97B681B686021184600F03FF9EE
:104760001CE07B6818683B6859683B68DB681A4640
:1047700000F0D6F87B681B684021184600F02FF93E
:104780000CE07B681A683B681B681946104600F00D
:1047900026F903E00123FB7300E000BF7B680122E0
:1047A00083F83D207B68002283F83C20FB7B184681
:1047B0001037BD4680BD80B483B000AF786000BFC5
:1047C0000C37BD465DF8047B704780B483B000AF02
:1047D000786000BF0C37BD465DF8047B704780B43D
:1047E00083B000AF786000BF0C37BD465DF8047B36
:1047F000704780B483B000AF786000BF0C37BD460F
:104800005DF8047B7047000080B485B000AF78602D
:1048100039607B681B68FB607B683A4A93420FD023
:104820007B68B3F1804F0BD07B68374A934207D047
:104830007B68364A934203D07B68354A934208D15D
:10484000FB6823F07003FB603B685B68FA68134306
:10485000FB607B682B4A93421BD07B68B3F1804F8F
:1048600017D07B68284A934213D07B68274A93422B
:104870000FD07B68264A93420BD07B68254A93422F
:1048800007D07B68244A934203D07B68234A934233
:1048900008D1FB6823F44073FB603B68DB68FA686F
:1048A0001343FB60FB6823F080023B685B691343A2
:1048B000FB607B68FA681A603B689A687B68DA621A
:1048C0003B681A687B689A627B680E4A934203D100
:1048D0003B681A697B681A637B6801225A617B68AE
:1048E0001B6903F00103012B05D17B681B6923F0D1
:1048F00001027B681A6100BF1437BD465DF8047B76
:10490000704700BF00000140000400400008004064
:10491000000C0040004001400044014000480140BC
:1049200080B487B000AFF860B9607A60FB681B6A3A
:104930007B61FB681B6A23F00102FB681A62FB685B
:104940009B693B613B6923F0F0033B617B681B0182
:104950003A6913433B617B6923F00A037B617A69FF
:10496000BB6813437B61FB683A699A61FB687A69AB
:104970001A6200BF1C37BD465DF8047B704780B4E7
:1049800087B000AFF860B9607A60FB681B6A7B6132
:10499000FB681B6A23F01002FB681A62FB689B69C4
:1049A0003B613B6923F470433B617B681B033A69BD
:1049B00013433B617B6923F0A0037B61BB681B0150
:1049C0007A6913437B61FB683A699A61FB687A698B
:1049D0001A6200BF1C37BD465DF8047B704780B487
:1049E00085B000AF786039607B689B68FB60FB68CE
:1049F00023F07003FB603A68FB68134343F007033E
:104A0000FB607B68FA689A6000BF1437BD465DF8AA
:104A1000047B704780B487B000AFF860B9607A60FB
:104A20003B60FB689B687B617B6923F47F437B6110
:104A30003B681A027B681A43BB6813437A691343C5
:104A40007B61FB687A699A6000BF1C37BD465DF8E0
:104A5000047B704780B485B000AF786039607B68B4
:104A600093F83C30012B01D1022350E07B680122F6
:104A700083F83C207B68022283F83D207B681B681A
:104A80005B68FB607B681B689B68BB60FB6823F00E
:104A90007003FB603B681B68FA681343FB607B682C
:104AA0001B68FA685A607B681B681C4A934218D0DE
:104AB0007B681B68B3F1804F13D07B681B68184A72
:104AC00093420ED07B681B68164A934209D07B68DC
:104AD0001B68154A934204D07B681B68134A9342B3
:104AE0000CD1BB6823F08003BB603B685B68BA688D
:104AF0001343BB607B681B68BA689A607B680122BD
:104B000083F83D207B68002283F83C200023184670
:104B10001437BD465DF8047B704700BF00000140BC
:104B20000004004000080040000C0040004001402C
:104B300080B483B000AF786000BF0C37BD465DF82D
:104B4000047B704780B483B000AF786000BF0C373F
:104B5000BD465DF8047B704780B582B000AF7860D9
:104B60007B68002B01D1012342E07B6893F8413040
:104B7000DBB2002B06D17B68002283F840207868E6
:104B8000FDF75CFA7B68242283F841207B681B6870
:104B9000DA687B681B6822F40052DA60786800F0FB
:104BA00085FF7B681B681A697B681B6822F490424A
:104BB0001A617B681B685A697B681B6822F02A02AD
:104BC0005A617B681B68DA687B681B6842F4005294
:104BD000DA607B6800225A647B68202283F84120D7
:104BE0007B68202283F842207B6800225A630023DE
:104BF00018460837BD4680BD80B58AB002AFF86060
:104C0000B9603B601346FB8000237B61FB6893F82F
:104C10004130DBB2202B75D1BB68002B02D0FB8862
:104C2000002B01D101236EE0FB6800225A64FB686F
:104C3000212283F84120FDF739FC7861FB68FA886E
:104C40009A84FB68FA88DA84FB689B68B3F5805F16
:104C500008D1FB681B69002B04D10023FB61BB68F2
:104C6000BB6103E0BB68FB610023BB612EE03B68D6
:104C700000937B6900228021F86800F05DFC034608
:104C8000002B05D0FB68202283F8412003233AE063
:104C9000FB69002B0BD1BB691B881A46FB681B689C
:104CA000C2F308025A60BB690233BB6107E0FB69CB
:104CB0001A78FB681B685A60FB690133FB61FB686B
:104CC000DB8C9BB2013B9AB2FB68DA84FB68DB8C1D
:104CD0009BB2002BCBD13B6800937B690022402123
:104CE000F86800F029FC0346002B05D0FB68202261
:104CF00083F84120032306E0FB68202283F841204B
:104D0000002300E0022318462037BD4680BD80B551
:104D10008CB000AFF860B9601346FB80FB6893F875
:104D20004230DBB2202B4AD1BB68002B02D0FB887B
:104D3000002B01D1012343E0FB6801221A63FB68C9
:104D400000225A63FB881A46B968F86800F04EFCE6
:104D5000034687F82F3097F82F30002B2CD1FB68B3
:104D60001B6B012B25D100233B61FB681B681B6873
:104D70003B61FB681B685B683B613B69FB681B68C8
:104D80000C33BB61BB6953E8003F7B617B6943F037
:104D90001003BB62FB681B680C33BA6A7A623B6221
:104DA000396A7A6A41E80023FB61FB69002BE5D18F
:104DB00002E0012387F82F3097F82F3000E002231C
:104DC00018463037BD4680BD80B5BAB000AF7860B8
:104DD0007B681B681B68C7F8E4307B681B68DB686E
:104DE000C7F8E0307B681B685B69C7F8DC300023DC
:104DF000C7F8D8300023C7F8D430D7F8E43003F030
:104E00000F03C7F8D830D7F8D830002B0FD1D7F818
:104E1000E43003F02003002B09D0D7F8E03003F092
:104E20002003002B03D0786800F081FD5BE2D7F807
:104E3000D830002B00F0DE80D7F8DC3003F001031F
:104E4000002B06D1D7F8E03003F49073002B00F06C
:104E5000D180D7F8E43003F00103002B0BD0D7F852
:104E6000E03003F48073002B05D07B685B6C43F06B
:104E700001027B685A64D7F8E43003F00403002B86
:104E80000BD0D7F8DC3003F00103002B05D07B6892
:104E90005B6C43F002027B685A64D7F8E43003F09D
:104EA0000203002B0BD0D7F8DC3003F00103002BFA
:104EB00005D07B685B6C43F004027B685A64D7F8CA
:104EC000E43003F00803002B11D0D7F8E03003F0F2
:104ED0002003002B05D1D7F8DC3003F00103002BB1
:104EE00005D07B685B6C43F008027B685A647B6882
:104EF0005B6C002B00F0F281D7F8E43003F0200364
:104F0000002B08D0D7F8E03003F02003002B02D0AC
:104F1000786800F00CFD7B681B685B6903F0400358
:104F2000402B0CBF01230023DBB2C7F8D4307B68D1
:104F30005B6C03F00803002B03D1D7F8D430002BAF
:104F40004FD0786800F014FC7B681B685B6903F045
:104F50004003402B41D17B681B681433C7F89C3059
:104F6000D7F89C3053E8003FC7F89830D7F898300E
:104F700023F04003C7F8D0307B681B681433D7F8A0
:104F8000D020C7F8A820C7F8A430D7F8A410D7F8C5
:104F9000A82041E80023C7F8A030D7F8A030002BA4
:104FA000D9D17B68DB6B002B13D07B68DB6B7E4A2F
:104FB0001A657B68DB6B1846FEF712F90346002B77
:104FC00016D07B68DB6B1B6D7A68D26B10469847F6
:104FD0000EE0786800F0A8F90AE0786800F0A4F91B
:104FE00006E0786800F0A0F97B6800225A6475E159
:104FF00000BF73E17B681B6B012B40F04F81D7F83A
:10500000E43003F01003002B00F04881D7F8E030C3
:1050100003F01003002B00F041810023BB607B688C
:105020001B681B68BB607B681B685B68BB60BB68F8
:105030007B681B685B6903F04003402B40F0B6803F
:105040007B68DB6B1B685B68A7F8BE30B7F8BE30C7
:10505000002B00F045817B689B8DB7F8BE209A42FB
:1050600080F03E817B68B7F8BE20DA857B68DB6B19
:10507000DB69B3F5807F00F088807B681B680C33A8
:10508000C7F88830D7F8883053E8003FC7F8843035
:10509000D7F8843023F48073C7F8B8307B681B6876
:1050A0000C33D7F8B820C7F89420C7F89030D7F859
:1050B0009010D7F8942041E80023C7F88C30D7F837
:1050C0008C30002BD9D17B681B6814337B677B6FD6
:1050D00053E8003F3B673B6F23F00103C7F8B43050
:1050E0007B681B681433D7F8B420C7F88020FB67AF
:1050F000F96FD7F8802041E80023BB67BB6F002B16
:10510000E1D17B681B6814333B663B6E53E8003F7C
:10511000FB65FB6D23F04003C7F8B0307B681B686C
:105120001433D7F8B020FA66BB66B96EFA6E41E860
:1051300000237B667B6E002BE3D17B68202283F803
:1051400042207B6800221A637B681B680C33FB6477
:10515000FB6C53E8003FBB64BB6C23F01003C7F843
:10516000AC307B681B680C33D7F8AC20BA657B6524
:10517000796DBA6D41E800233B653B6D002BE3D1AF
:105180007B68DB6B1846FDF7BBFF7B6802225A6326
:105190007B689A8D7B68DB8D9BB2D31A9BB21946D4
:1051A0007868FCF787FB9BE0375800087B689A8D8E
:1051B0007B68DB8D9BB2D31AA7F8CE307B68DB8D82
:1051C0009BB2002B00F08E80B7F8CE30002B00F0A1
:1051D00089807B681B680C33BB63BB6B53E8003F63
:1051E0007B637B6B23F49073C7F8C8307B681B68C4
:1051F0000C33D7F8C8207A643B64396C7A6C41E888
:105200000023FB63FB6B002BE3D17B681B6814332B
:105210007B627B6A53E8003F3B623B6A23F00103F9
:10522000C7F8C4307B681B681433D7F8C4203A63CE
:10523000FB62F96A3A6B41E80023BB62BB6A002B50
:10524000E3D17B68202283F842207B6800221A6326
:105250007B681B680C333B613B6953E8003FFB6094
:10526000FB6823F01003C7F8C0307B681B680C3361
:10527000D7F8C020FA61BB61B969FA6941E8002337
:105280007B617B69002BE3D17B6802225A63B7F80C
:10529000CE3019467868FCF70DFB23E0D7F8E430F0
:1052A00003F08003002B09D0D7F8E03003F080032F
:1052B000002B03D0786800F0D2FA14E0D7F8E4307D
:1052C00003F04003002B0ED0D7F8E03003F040038A
:1052D000002B08D0786800F012FB04E000BF02E069
:1052E00000BF00E000BFE837BD4680BD80B483B09A
:1052F00000AF786000BF0C37BD465DF8047B704797
:1053000080B483B000AF786000BF0C37BD465DF855
:10531000047B704780B483B000AF786000BF0C3767
:10532000BD465DF8047B704780B483B000AF786001
:1053300000BF0C37BD465DF8047B704780B59CB05C
:1053400000AF78607B689B6BFB667B681B681B68A3
:1053500003F48073002B72D1FB6E0022DA85FB6EA2
:105360001B680C33FB64FB6C53E8003FBB64BB6CF5
:1053700023F48073BB66FB6E1B680C33BA6EBA6590
:105380007B65796DBA6D41E800233B653B6D002B71
:10539000E5D1FB6E1B681433BB63BB6B53E8003F66
:1053A0007B637B6B23F001037B66FB6E1B6814330E
:1053B0007A6E7A643B64396C7A6C41E80023FB6353
:1053C000FB6B002BE5D1FB6E1B6814337B627B6AA1
:1053D00053E8003F3B623B6A23F040033B66FB6EB1
:1053E0001B6814333A6E3A63FB62F96A3A6B41E820
:1053F0000023BB62BB6A002BE5D1FB6E202283F841
:105400004220FB6E1B6B012B19D1FB6E1B680C330A
:105410003B613B6953E8003FFB60FB6823F01003EE
:10542000FB65FB6E1B680C33FA6DFA61BB61B969F1
:10543000FA6941E800237B617B69002BE5D1FB6EB3
:1054400000225A63FB6E1B6B012B06D1FB6E9B8DFA
:105450001946F86EFCF72EFA02E0F86EFFF750FFDF
:1054600000BF7037BD4680BD80B584B000AF7860A6
:105470007B689B6BFB60FB6801225A63FB681B6BBC
:10548000012B08D1FB689B8D5B089BB21946F8681D
:10549000FCF710FA02E0F868FFF73CFF00BF103796
:1054A000BD4680BD80B584B000AF78600023FB604E
:1054B0007B689B6BBB60BB681B685B6903F0800308
:1054C000802B0CBF01230023DBB2FB60BB6893F889
:1054D0004130DBB2212B08D1FB68002B05D0BB6823
:1054E0000022DA84B86800F01BF9BB681B685B69AE
:1054F00003F04003402B0CBF01230023DBB2FB6011
:10550000BB6893F84230DBB2222B08D1FB68002B3A
:1055100005D0BB680022DA85B86800F029F9BB68BD
:105520005B6C43F01002BB685A64B868FFF7FCFE7E
:1055300000BF1037BD4680BD80B586B000AFF860B3
:10554000B9603B601346FB713BE03B6AB3F1FF3F40
:1055500037D0FCF7ABFF02463B68D31A3A6A9A424F
:1055600002D33B6A002B01D103233AE0FB681B689E
:10557000DB6803F00403002B23D0BB68802B20D012
:10558000BB68402B1DD0FB681B681B6803F0080339
:10559000082B16D100237B61FB681B681B687B61AD
:1055A000FB681B685B687B617B69F86800F0E0F86A
:1055B000FB6808225A64FB68002283F8402001231C
:1055C0000FE0FB681B681A68BB681340BA689A4210
:1055D0000CBF01230023DBB21A46FB799A42B4D0F8
:1055E000002318461837BD4680BD000080B598B02E
:1055F00000AFF860B9601346FB80BA68FB689A6236
:10560000FB68FA889A85FB6800225A64FB682222AC
:1056100083F84220FB68DB6B3E4ADA63FB68DB6B96
:105620003D4A1A64FB68DB6B3C4ADA64FB68DB6B5F
:1056300000221A6507F10803FB65FB68D86BFB685D
:105640001B6804331946FB6D1A68FB88FDF700FDE3
:1056500000233B61FB681B681B683B61FB681B68A0
:105660005B683B613B69FB681B69002B19D0FB68D9
:105670001B680C333B643B6C53E8003FFB63FB6BE4
:1056800043F48073BB65FB681B680C33BA6DFA6426
:10569000BB64B96CFA6C41E800237B647B6C002B23
:1056A000E5D1FB681B681433FB62FB6A53E8003FDB
:1056B000BB62BB6A43F001037B65FB681B68143364
:1056C0007A6DBA637B63796BBA6B41E800233B6305
:1056D0003B6B002BE5D1FB681B681433BB61BB69D6
:1056E00053E8003F7B617B6943F040033B65FB6807
:1056F0001B6814333A6D7A623B62396A7A6A41E810
:105700000023FB61FB69002BE5D1002318466037BD
:10571000BD4680BD3D53000869540008A5540008EB
:1057200080B489B000AF78607B681B680C33FB6085
:10573000FB6853E8003FBB60BB6823F0C003FB611C
:105740007B681B680C33FA69BA617B617969BA6955
:1057500041E800233B613B69002BE5D17B682022B7
:1057600083F8412000BF2437BD465DF8047B7047B5
:1057700080B495B000AF78607B681B680C337B63A6
:105780007B6B53E8003F3B633B6B23F49073FB64FC
:105790007B681B680C33FA6C3A64FB63F96B3A6CF8
:1057A00041E80023BB63BB6B002BE5D17B681B6822
:1057B00014333B623B6A53E8003FFB61FB6923F013
:1057C0000103BB647B681B681433BA6CFA62BB626A
:1057D000B96AFA6A41E800237B627B6A002BE5D153
:1057E0007B681B6B012B19D17B681B680C33FB603A
:1057F000FB6853E8003FBB60BB6823F010037B6489
:105800007B681B680C337A6CBA617B617969BA6911
:1058100041E800233B613B69002BE5D17B682022F6
:1058200083F842207B6800221A6300BF5437BD46CC
:105830005DF8047B704780B584B000AF78607B680A
:105840009B6BFB60FB680022DA85FB680022DA8430
:10585000F868FFF769FD00BF1037BD4680BD80B412
:1058600085B000AF78607B6893F84130DBB2212BC4
:105870003ED17B689B68B3F5805F14D17B681B6960
:10588000002B10D17B681B6AFB60FB681B881A46E3
:105890007B681B68C2F308025A607B681B6A9A1C0B
:1058A0007B681A6208E07B681B6A591C7A6811627F
:1058B0001A787B681B685A607B68DB8C9BB2013B63
:1058C0009BB27A681946D184002B0FD17B681B6884
:1058D000DA687B681B6822F08002DA607B681B68EC
:1058E000DA687B681B6842F04002DA60002300E05F
:1058F000022318461437BD465DF8047B704780B517
:1059000082B000AF78607B681B68DA687B681B68D0
:1059100022F04002DA607B68202283F84120786818
:10592000FFF7E4FC002318460837BD4680BD80B56C
:105930008CB000AF78607B6893F84230DBB2222BEA
:1059400040F0AE807B689B68B3F5805F17D17B68C1
:105950001B69002B13D10023FB627B689B6ABB622F
:105960007B681B685B689BB2C3F308039AB2BB6A8F
:105970001A807B689B6A9A1C7B689A6226E07B6827
:105980009B6AFB620023BB627B689B68B3F5805F08
:1059900007D07B689B68002B0AD17B681B69002BB2
:1059A00006D17B681B685B68DAB2FB6A1A7008E094
:1059B0007B681B685B68DBB203F07F03DAB2FB6ACB
:1059C0001A707B689B6A5A1C7B689A627B68DB8DC5
:1059D0009BB2013B9BB27A681946D185002B5DD101
:1059E0007B681B68DA687B681B6822F02002DA603B
:1059F0007B681B68DA687B681B6822F48072DA6057
:105A00007B681B685A697B681B6822F001025A6137
:105A10007B68202283F842207B6800225A637B68DF
:105A20001B6B012B35D17B6800221A637B681B68D6
:105A30000C337B617B6953E8003F3B613B6923F09A
:105A400010037B627B681B680C337A6A3A62FB61E5
:105A5000F9693A6A41E80023BB61BB69002BE5D1D3
:105A60007B681B681B6803F01003102B0AD100230E
:105A7000FB607B681B681B68FB607B681B685B685E
:105A8000FB60FB687B689B8D19467868FBF712FF0B
:105A900002E07868FFF734FC002302E0002300E016
:105AA000022318463037BD4680BD00002DE9B04FB7
:105AB000C0B000AFC7F8F400D7F8F4301B681B691A
:105AC00023F44050D7F8F430D968D7F8F4301A6886
:105AD00040EA01031361D7F8F4309A68D7F8F4303C
